:0400000080312428FF
:1000060008007E14803120007F08A2000B1F1F28E5
:100016002E00191A0F1E13288731602780311F28DA
:10002600991A8F1E1A2887317D2780311F289A1A20
:10003600901E1F288731F32720002208FF007E101C
:100046000900803126287E3084008F30850012001A
:10005600DB001200DC001200DD001200DE001200E0
:10006600DF001200E0008C3084002330850064300D
:10007600FE000030FF008F31BE27803146308400FD
:10008600003085001530FE000030FF008F31BE279E
:100096008031A0308400003085004430FE000030FE
:1000A600FF008F31BE277E10200080315A288F3105
:1000B600D92780318B170B17FF302000A30006309D
:1000C600A4008F31AB2780318F316F27803122001A
:1000D600A601A701A501AB01A801200096132000E7
:1000E6000D1A91280130C20042082200A50603100D
:1000F6002000961F0314031C8328200096178528CA
:10010600200096130F302000C3003530C200513056
:10011600890B8B28C20B8B28C30B8B2820008E1AC9
:1001260072285A08031D7228DA01DA0A0F302000F5
:10013600C3003530C2005130890B9F28C20B9F285F
:10014600C30B9F2820005A03031DA5286008C20080
:100156004208D9005F08C200C301C21BC303590885
:10016600C400C50143084506031DBB2842084406D2
:100176000319D42801302200A6070030A73D3230EB
:100186002000A3000030A4005908013EA50000305D
:1001960003180130A600843126248031200023086C
:1001A600AA2822002708803A2000C2008030420296
:1001B600031DE028013022002602031CB8298731DE
:1001C600DE278031200024082200AA002000230810
:1001D6002200A9002A082000AE00220029082000DB
:1001E600AD008231B222803120002E082200A40008
:1001F60020002D082200A30023092000C2002200AF
:1002060024092000C300C20A0319C30A22002908D0
:1002160020004207A30022002A082000433DA40034
:100226008F31CA27803120002408B0002308AF0090
:100236008431B124803120002F08B4003008B50085
:100246003108B60083313A23803120003508220078
:10025600AD00200034082200AC002508031D6229E9
:1002660000302D02193003192C02031C4A292000E4
:100276005808031D4A290230A6009030A70087318E
:10028600432780312000D801D80AD70193290030AE
:1002960022002D02193003192C020318932920007D
:1002A6005708031D93290030A6009030A700873118
:1002B600432780312000D701D70AD801932900307F
:1002C60022002D02193003192C02031C87292B0842
:1002D600031D8729AB01AB0A2803031D7C29A8014E
:1002E60000302000A6009030A700873143278031D8
:1002F6009329A801A80A02302000A6009030A70082
:100306008731432780319329003022002D0219308E
:1003160003192C02031893292B03031D9329AB0100
:100326008431EF24803100302000AB00A030AC00D7
:100336004030AD00220020082000AE002200210837
:100346002000AF00220022082000B0008131BC212D
:10035600803120002B082200A00020002C0822005B
:10036600A10020002D082200A2002200A601A7015C
:10037600A52820002B08B1002C08B2002D08B300D8
:100386000310320D330DB4003408B7002E08B10047
:100396002F08B2003008B3000310320D330DB4003D
:1003A6003408B60037080319E4293608370203185B
:1003B600EB293703FF3A3607B10019303102031C27
:1003C600EB292E08AB002F08AC003008AD00080062
:1003D600360803190800370836020318FA293603C7
:1003E600FF3A3707B100193031020318080006300A
:1003F600B1003108B500AD1BB517B01B3517AC17EA
:10040600FF30AB05FF30AC050030AD05AF17FF3050
:10041600AE05FF30AF050030B005360837020318C9
:10042600362A0130AE35AF0DB00D890B152A0130D5
:10043600B602360837060319312A0130B5023508E7
:1004460007390319312A142A0130AD36AC0CAB0C2E
:10045600890B282A0130B1003108B707370836065C
:1004660003195B2A272A3708360203185B2A01304C
:10047600AB35AC0DAD0D890B3B2A0130B702360802
:1004860037060319572A0130B5023508073903190B
:10049600572A3A2A0130B036AF0CAE0C890B4E2AD9
:1004A6000130B1003108B60737083606031D4D2A5C
:1004B600B51F6D2AFF30AB06FF30AC06FF30AD0628
:1004C6000130AB07003003180130AC0700300318C9
:1004D6000130AD07351F7F2AFF30AE06FF30AF066D
:1004E600FF30B0060130AE07003003180130AF0709
:1004F600003003180130B007B5012B08AE072C08F1
:10050600AF3D2D08B03DB01F9A2AFF30AE06FF3032
:10051600AF06FF30B0060130AE07003003180130D9
:10052600AF07003003180130B007B501B50A2E0831
:10053600A3002F08A4003008A5003708B100310831
:10054600A6003508B2003208A7008331C123200077
:100556002308AB002408AC002508AD0008002000E5
:100566002E08AB002D08AA0086314B268231863133
:10057600BB268231003A0319C32A8531F32582311D
:1005860020005E35463E86008701403FB500413F6C
:10059600B6005E35463E86008701403FB700413FC4
:1005A600B8005E08AF002F08B9005D08AF00B001C3
:1005B600AF1BB0033908B100B20130083206031D83
:1005C600E62A2F0831060319292B3935463E8600BF
:1005D6008701403FAF00413FB00030083602031D9F
:1005E600F62A2F0835020318002B3935463E8600B9
:1005F6008701403FB500413FB6003935463E86008B
:100606008701403FAF00413FB00038083002031D6C
:100616000E2B37082F020318182B3935463E860055
:100626008701403FB700413FB8000530A3000030C6
:10063600A4003908013EA500003003180130A600C9
:1006460084312624823120002308D52A370835072D
:10065600AF003808363DB000B036AF0C2F08B300F7
:100666003008B4003408AE003308AD00080020009E
:100676003408B8003508B9003608BA000310390D39
:100686003A0DBB003B08C1004108031D532B003047
:10069600B7000030B6000030B5000030B4000800E6
:1006A6003408B8003508B9003608BA001730BA362B
:1006B600B90CB80C890B5A2B3808BB003B08BC0098
:1006C600B517FF30B405FF30B5050030B605340860
:1006D600BD003508BE003608BF00C0018E30C1021D
:1006E600C11F912B4108803A8F3E0318832B00309F
:1006F600B7000030B6000030B5000030B400080086
:100706000130C036BF0CBE0CBD0C890B842B0130EA
:10071600B8003808C1070319AA2B832B18304102E9
:10072600031CA72B0030B7000030B6000030B50020
:100736000030B40008000130BD35BE0DBF0DC00D40
:10074600890B9F2B0130C1024108031D9E2B3C08DB
:100756000319B82BBD09BE09BF09C009BD0A031993
:10076600BE0A0319BF0A0319C00A4008B7003F08AA
:10077600B6003E08B5003D08B40008002000260873
:100786000319CA2B250824042304031DDB2B003080
:10079600A3000030A4000030A50008000130A80026
:1007A6002808A6070130A536A40CA30C890BD62B66
:1007B600FE3025050319F42BD12B0130A80028089B
:1007C600A6070130A307003003180130A407003044
:1007D60003180130A5070130A536A40CA30C890B1C
:1007E600EF2BFF3025050319012CE02B0130A60263
:1007F6000130A335A40DA50D890BFC2BA41B072CDA
:10080600023026020318F92B26180F2CFF30A305F9
:100816007F30A405FF30A5050310A60C2608A80006
:10082600A901AA011030A835A90DAA0D890B162C0D
:100836002808A3042908A4042A08A50427080319DC
:100846000800A51708002000A901A61F312CA5093C
:10085600A609A50A0319A60AA901A90AA41F382CE4
:10086600A309A409A30A0319A40A23082404031943
:100876005F2CA801A80AA41B4A2C0130A335A40D9D
:10088600890B412C0130A7002708A8073E2C240815
:100896002602031D502C23082502031C562C230870
:1008A600A5022408A63B0130A436A30C890B572CBD
:1008B6000130A802031D4A2C29080319672CA50933
:1008C600A609A50A0319A60A2608A4002508A30056
:1008D6000800F601F31F762CF209F309F20A031950
:1008E600F30AF601F60AF11F7D2CF009F109F00A68
:1008F6000319F10A700871040319A42CF501F50A0D
:10090600F11B8F2C0130F035F10D890B862C01304F
:10091600F4007408F507832C71087302031D952CE7
:1009260070087202031C9B2C7008F2027108F33BDC
:100936000130F136F00C890B9C2C0130F502031DB9
:100946008F2C76080319AC2CF209F309F20A031965
:10095600F30A7308F1007208F0000800200030085E
:10096600AB002F08AA0086317126843120002F089B
:10097600D0073008D13D8631DD268431003A03198F
:10098600D42C20005C35A03E86008701403FB20093
:10099600413FB3003208D0023308D13B86311F26CF
:1009A600843119302000A3000030A4005108A600AD
:1009B6005008A50085312625843120002408AC0086
:1009C6002308AB008F31EB2720002B08AF002C0843
:1009D600B0002D08B10008008F31A3278431003AFA
:1009E600031D080020006008AA00AB01AA35AB0D64
:1009F6008C30AC002330AD002A082C0786002B086B
:100A06002D3D8700403FAE00413FAF0060085F06C6
:100A1600031D122DE001E003DF01DF030800323081
:100A2600A3000030A40001306007A500A60103184A
:100A3600A60AE01BA6038431262420002308AA0068
:100A46002A08E00008002000A901AA0123082404BE
:100A56000319562DA801A80AA41B3B2D0130A33566
:100A6600A40D890B322D0130A7002708A8072F2DCA
:100A76000130A935AA0D890B3C2D24082602031D39
:100A8600462D23082502031C4D2D2308A502240804
:100A9600A63B29140130A436A30C890B4E2D013038
:100AA600A802031D3B2D2A08A4002908A30008005C
:100AB600F501F6017008710403198A2DF701F70A8A
:100AC600F11B6F2D0130F035F10D890B662D0130CC
:100AD600F4007408F707632D0130F535F60D890B20
:100AE600702D71087302031D7A2D70087202031CA3
:100AF600812D7008F2027108F33B75140130F1364E
:100B0600F00C890B822D0130F702031D6F2D76083C
:100B1600F1007508F000080020009A01990196017D
:100B260097019801073095007F309100FF309200C1
:100B3600BF309300FF3094005F303E00CE006F3030
:100B4600C300FF30D9000730E400FF30B800DA01F7
:100B5600E501C401B901CF01E601BA01C501D00121
:100B6600DB013D001E08E0390F389E0010303E00C4
:100B7600A6003D004B08E0391738CB000800873146
:100B860021278531003A031D08002000600A031959
:100B9600E0013230F0000030F10001305F07F20072
:100BA600F3010318F30ADF1BF30384316C24700886
:100BB600FA007A082000DF005F08FA00FB01FA3528
:100BC600FB0D8C30FC002330FD007A087C07860084
:100BD6007B087D3D87007808C03F7908C13F080043
:100BE6008F319B278531003A031D080020005E35B2
:100BF600463E86008701403FAB00413FAC005E08A1
:100C06005D06031D0B2EDE01DE03DD01DD0308009C
:100C16000530A3000030A40001305E07A500A60140
:100C26000318A60ADE1BA603843126242000230807
:100C3600AA002A08DE0008008F3193278631003A81
:100C4600031D080020005C35A03E86008701403F5A
:100C5600AB00413FAC005C085B06031D372EDC0190
:100C6600DC03DB01DB0308001A30A3000030A4001C
:100C760001305C07A500A6010318A60ADC1BA60323
:100C86008431262420002308AA002A08DC00080054
:100C96008631BB268631003A031D080020005E0A15
:100CA6000319DE010530A3000030A40001305D0702
:100CB600A500A6010318A60ADD1BA6038431262477
:100CC60020002308AC002C08DD005D35463E86007A
:100CD60087012A08C03F2B08C13F08008631DD2660
:100CE6008631003A031D080020005C0A0319DC0166
:100CF6001A30A3000030A40001305B07A500A6014E
:100D06000318A60ADB1BA603843126242000230829
:100D1600AC002C08DB005B35A03E860087012A0864
:100D2600C03F2B08C13F08002000A400610803193A
:100D3600992E2E00191AA42E2000240822009A00AB
:100D4600B82E191220002408A3005608DC3E86009F
:100D56008701230881000130A3002308D607083045
:100D660056020318D6010130E1022E0019160800BA
:100D760020005E08A300A401A31BA40301305D07A5
:100D8600A500A6010318A60ADD1BA6032000240859
:100D96002606031DD02E230825060319D92E5E0824
:100DA600031DDB2E04305D06031DDB2E013008001B
:100DB6000030080020005C08A300A401A31BA403C4
:100DC60001305B07A500A6010318A60ADB1BA603D4
:100DD600200024082606031DF22E230825060319E3
:100DE600FB2E5C08031DFD2E19305B06031DFD2E30
:100DF600013008000030080020005A03031D0800D7
:100E060002308F31842786318F31722786317108FF
:100E16002000A1007008A0006430F0000030F1004E
:100E26002108F3002008F20085315B258631710820
:100E3600F9007008F8008531C22508002000600816
:100E4600F000F101F01BF10301305F07F200F3013E
:100E56000318F30ADF1BF30371087306031D352F0E
:100E66007008720603193F2F20006008031D412FEA
:100E760031305F06031D412F0130080000300800A5
:100E860028302000A8002808AB0020002708A90069
:100E96002608A800A60A0319A70A28088400290814
:100EA60085000008AA002A08AC002C0803190800CF
:100EB6002C088F3178278731482F083020006102AF
:100EC60003187A2F5508DC3E8600870101082200A8
:100ED6009A000130F00070082000D507083055024E
:100EE6000318D5010130F0007008E10708002E0054
:100EF6001912080022009D1C822F1D121D161908AA
:100F0600F00020005408D43E860087017008810056
:100F16000130F0007008D407083054020318D401D9
:100F26000130F0007008D20708002E00991219123D
:100F3600083022009F0090309D0024309E00CF3064
:100F46009B009C012000D601D5010830A300230890
:100F5600E100D401D301D2012E0099160800013018
:100F660025009C009B019D019B30990098012E0055
:100F760090129A1603302000A3000030A4008F318F
:100F8600AB27E73025009A00080022008E018F016A
:100F960090019101920193018D0121009E019B0117
:100FA60094019501960197019A01990107309800DD
:100FB60080309300080020006008A500A601A53532
:100FC600A60D8C30A7002330A80025082707860029
:100FD6002608283D8700403FA300413FA4000800A3
:100FE6002E009012210064086504031908006508A4
:0A0FF6008A0064080A008731080031
:101EDE0025009A17080021000D08F1000C08F000EB
:101EEE0008002000A5002508863197260800FF343B
:101EFE00FF34FF34FF34FF34FF34F000700821004C
:101F0E009E009317131408002F0096019701980155
:101F1E0099019A019B01080020005C0A031D992F6C
:101F2E00013008000030080020005E0A031DA12FBA
:101F3E0001300800003008002000600A031DA92FA0
:101F4E000130080000300800200024082100E500C0
:101F5E00200023082100E4000800603031008D00CD
:101F6E008F0191010530930020309200080064002B
:101F7E00800101310130FE020030FF3B7F087E04FC
:101F8E0003190034BF2F2000A41F08002309A50049
:101F9E002409A600A50A0319A60A2508A3002608E7
:101FAE00A40008008F318B278F3185318F258F311B
:101FBE008F31B4278F318731C8278F318731B227C0
:101FCE008F3187319827080020002B08A3002C089A
:101FDE00A400A5018E30AE002E08A600A701833105
:101FEE00C12320002308AB002408AC002508AD0057
:0A1FFE0008003034003431340034A0
:020000040001F9
:0A000E00EC3FFF3F9F3FFF3FFF3F25
:00000001FF
